{
  "contractName": "Venta",
  "abi": [
    {
      "anonymous": false,
      "inputs": [
        {
          "indexed": false,
          "internalType": "address",
          "name": "vendedor",
          "type": "address"
        },
        {
          "indexed": false,
          "internalType": "uint256",
          "name": "valor",
          "type": "uint256"
        }
      ],
      "name": "TaskCreated",
      "type": "event"
    },
    {
      "anonymous": false,
      "inputs": [
        {
          "indexed": false,
          "internalType": "bool",
          "name": "estado",
          "type": "bool"
        }
      ],
      "name": "TaskToggleDone",
      "type": "event"
    },
    {
      "inputs": [],
      "name": "estadoVenta",
      "outputs": [
        {
          "internalType": "bool",
          "name": "",
          "type": "bool"
        }
      ],
      "stateMutability": "view",
      "type": "function",
      "constant": true
    },
    {
      "inputs": [],
      "name": "valor",
      "outputs": [
        {
          "internalType": "uint256",
          "name": "",
          "type": "uint256"
        }
      ],
      "stateMutability": "view",
      "type": "function",
      "constant": true
    },
    {
      "inputs": [
        {
          "internalType": "address payable",
          "name": "_vendedor",
          "type": "address"
        },
        {
          "internalType": "uint256",
          "name": "_valor",
          "type": "uint256"
        }
      ],
      "name": "crearVenta",
      "outputs": [],
      "stateMutability": "payable",
      "type": "function",
      "payable": true
    },
    {
      "inputs": [],
      "name": "iniciarVenta",
      "outputs": [],
      "stateMutability": "payable",
      "type": "function",
      "payable": true
    },
    {
      "inputs": [],
      "name": "confirmarCompra",
      "outputs": [],
      "stateMutability": "payable",
      "type": "function",
      "payable": true
    },
    {
      "inputs": [],
      "name": "confirmaRecibo",
      "outputs": [],
      "stateMutability": "payable",
      "type": "function",
      "payable": true
    },
    {
      "inputs": [],
      "name": "cancelarCompra",
      "outputs": [],
      "stateMutability": "payable",
      "type": "function",
      "payable": true
    }
  ],
  "bytecode": "0x60806040526000805460ff60a01b1916905534801561001d57600080fd5b506106ab8061002d6000396000f3fe6080604052600436106100705760003560e01c80636a0ed5a11161004e5780636a0ed5a11461008f578063c0db3d1d146100c5578063e5881dbe146100cd578063ecbac7cf1461010057600080fd5b80630489b57e146100755780630c88e2b01461007f5780632523541d14610087575b600080fd5b61007d610124565b005b61007d6102ba565b61007d610375565b34801561009b57600080fd5b506000546100b090600160a01b900460ff1681565b60405190151581526020015b60405180910390f35b61007d610490565b61007d6100db366004610593565b600155600280546001600160a01b0319166001600160a01b0392909216919091179055565b34801561010c57600080fd5b5061011660015481565b6040519081526020016100bc565b6000546001600160a01b031633148061014757506002546001600160a01b031633145b6101c95760405162461bcd60e51b815260206004820152604260248201527f4e6f206572657320656c20636f6d707261646f72206e6920656c2076656e646560448201527f646f722c206e6f2070756564657320636f6e6669726d617220656c2072656369606482015261626f60f01b608482015260a4015b60405180910390fd5b600054600160a01b900460ff1615156001146102185760405162461bcd60e51b815260206004820152600e60248201526d56656e746120696e61637469766160901b60448201526064016101c0565b6000546001546001600160a01b03909116906108fc906102399060026105cb565b6040518115909202916000818181858888f19350505050158015610261573d6000803e3d6000fd5b50600280546001546001600160a01b03909116916108fc91610282916105cb565b6040518115909202916000818181858888f193505050501580156102aa573d6000803e3d6000fd5b506000805460ff60a01b19169055565b600054600160a01b900460ff1615156001146103095760405162461bcd60e51b815260206004820152600e60248201526d56656e746120696e61637469766160901b60448201526064016101c0565b6000546001546001600160a01b03909116906108fc9061032b906002906105f6565b6040518115909202916000818181858888f19350505050158015610353573d6000803e3d6000fd5b506002546001546001600160a01b03909116906108fc906102829060036105cb565b6002543490338031916001600160a01b0316146103ef5760405162461bcd60e51b815260206004820152603260248201527f4e6f206572657320656c2076656e6465646f722c206e6f2070756564657320636044820152716f6e6669726d617220656c2072656369626f60701b60648201526084016101c0565b6001546103fd9060026105cb565b82101561041c5760405162461bcd60e51b81526004016101c090610618565b60015461042a9060026105cb565b8110156104795760405162461bcd60e51b815260206004820152601b60248201527f4e6f207469656e6520666f6e646f7320737566696369656e746573000000000060448201526064016101c0565b50506000805460ff60a01b1916600160a01b179055565b6000543490333190600160a01b900460ff1615156001146104f35760405162461bcd60e51b815260206004820152601760248201527f4c612076656e7461206e6f20657374612061637469766100000000000000000060448201526064016101c0565b6001546105019060026105cb565b8210156105205760405162461bcd60e51b81526004016101c090610618565b60015461052e9060026105cb565b81101561057d5760405162461bcd60e51b815260206004820152601b60248201527f4e6f207469656e6520666f6e646f7320737566696369656e746573000000000060448201526064016101c0565b5050600080546001600160a01b03191633179055565b600080604083850312156105a657600080fd5b82356001600160a01b03811681146105bd57600080fd5b946020939093013593505050565b80820281158282048414176105f057634e487b7160e01b600052601160045260246000fd5b92915050565b60008261061357634e487b7160e01b600052601260045260246000fd5b500490565b6020808252603e908201527f4c61206f6665727461206465626520646520736572206d61796f7220616c206460408201527f6f626c652064656c2076616c6f72206465206c612070726f706965646164000060608201526080019056fea26469706673582212200ac61d6560620b050119922f55d0d0a21dcfbfa25504f3888c59aa1b0504159564736f6c63430008110033",
  "immutableReferences": {},
  "source": "//SPDX-License-Identifier: MIT\npragma solidity ^0.8.6;\n\ncontract Venta{\n    address payable comprador;\n    bool public estadoVenta = false;\n    uint public valor;\n    address payable vendedor;\n\n    event TaskCreated (\n        address vendedor,\n        uint valor\n    );\n\n    event TaskToggleDone (\n        bool estado\n    );\n\n    function crearVenta (address payable _vendedor, uint _valor) payable public {\n        valor = _valor;\n        vendedor = _vendedor;\n    }\n\n    // constructor (uint _valor, address payable _vendedor) {\n    //     crearVenta(_vendedor, _valor);\n    // }\n\n    function iniciarVenta() payable public {\n        uint oferta = msg.value;\n        uint fondos = msg.sender.balance;\n        require(msg.sender == vendedor, \"No eres el vendedor, no puedes confirmar el recibo\");\n        require(oferta >= (valor * 2), \"La oferta debe de ser mayor al doble del valor de la propiedad\");\n        require(fondos >= (valor * 2), \"No tiene fondos suficientes\");\n        estadoVenta = true;\n    }\n\n    function confirmarCompra() payable public{\n        uint oferta = msg.value;\n        uint fondos = msg.sender.balance;\n        require(estadoVenta == true,\"La venta no esta activa\");\n        require(oferta >= (valor * 2), \"La oferta debe de ser mayor al doble del valor de la propiedad\");\n        require(fondos >= (valor * 2), \"No tiene fondos suficientes\");\n        comprador = payable(msg.sender);\n    }\n\n    function confirmaRecibo() payable public{\n        require(estadoVenta == true, \"Venta inactiva\");\n        comprador.transfer(valor/2);\n        vendedor.transfer(valor*3);\n        estadoVenta = false;\n    }\n\n    function cancelarCompra() payable public{\n        require(msg.sender == comprador || msg.sender == vendedor, \"No eres el comprador ni el vendedor, no puedes confirmar el recibo\");\n        require(estadoVenta == true, \"Venta inactiva\");\n        comprador.transfer(valor*2);\n        vendedor.transfer(valor*2);\n        estadoVenta= false;\n    }\n\n}",
  "sourcePath": "/Users/rodrigo.gacete/Documents/venta/contracts/Venta.sol",
  "compiler": {
    "name": "solc",
    "version": "0.8.17+commit.8df45f5f.Emscripten.clang"
  },
  "schemaVersion": "3.4.11",
  "updatedAt": "2022-11-26T01:55:43.854Z",
  "networkType": "ethereum",
  "devdoc": {
    "kind": "dev",
    "methods": {},
    "version": 1
  },
  "userdoc": {
    "kind": "user",
    "methods": {},
    "version": 1
  }
}